:100000000C9437000C945F000C945F000C945F001C
:100010000C945F000C945F000C945F000C945F00E4
:100020000C945F000C945F000C945F000C945F00D4
:100030000C945F000C945F000C94C1000C945F0062
:100040000C945F000C945F000C945F000C945F00B4
:100050000C945F000C945F000C945F000C945F00A4
:100060000C945F000C945F001E01A001A4011124F8
:100070001FBECFEFD8E0DEBFCDBF11E0A0E0B1E002
:10008000ECE6F2E102C005900D92A835B107D9F770
:1000900021E0A8E5B1E001C01D92A23AB207E1F764
:1000A00010E0C6E3D0E004C02197FE010E94FE07E5
:1000B000C433D107C9F70E9411040C9429090C9488
:1000C00000000C94A008E9E5F1E01182108213828F
:1000D00012821582148216821782389681E0E939DD
:1000E000F80799F784B5826084BD89EF87BD83E006
:1000F00085BD80916E00826080936E007894089533
:10010000F894E9E5F1E090E080E0A081B181AB2BCB
:1001100091F4FC0133E0EE0FFF1F3A95E1F7E75A47
:10012000FE4F7183608353834283558344831682D9
:10013000278378940895019638968830910529F799
:100140008FEF9FEFF6CFCF93DF93C9E5D1E08881A2
:100150009981009771F02E81222359F01E822F8100
:10016000211107C0DC01ED91FC910480F581E02DA7
:1001700009952896B1E0C939DB0749F7DF91CF919E
:1001800008951F920F920FB60F9211242F933F9351
:100190004F935F936F937F938F939F93AF93BF938F
:1001A000CF93DF93EF93FF93C9E5D1E08C819D81DD
:1001B000009771F101979D838C832896B1E0C9392E
:1001C000DB07A1F78091990190919A01A0919B0181
:1001D000B0919C010196A11DB11D8093990190934E
:1001E0009A01A0939B01B0939C01FF91EF91DF9145
:1001F000CF91BF91AF919F918F917F916F915F91BF
:100200004F913F912F910F900FBE0F901F90189517
:100210008A819B819D838C838E818F3F11F08F5FBC
:100220008E838F81882349F288819981DC01ED9149
:10023000FC910480F581E02D0995BFCF88E591E020
:100240000C9463000F931F93CF93DF938C01EB010A
:100250006991662321F0C8010E94B901F9CFDF91AD
:10026000CF911F910F9108958F929F92AF92BF925D
:10027000CF92DF92EF92FF920F931F93CF93DF9372
:10028000CDB7DEB72C970FB6F894DEBF0FBECDBF4B
:100290007C0100E077FF08C070956095509541950E
:1002A0005F4F6F4F7F4F01E01C861AE09AE0892E66
:1002B000912CA12CB12CCC24C394D12CCC0EDD1EBE
:1002C000C10ED11CCB01BA01A50194010E94CB073C
:1002D000942F852F605DF6016083A901692F782F27
:1002E0008FEF810F411551056105710539F5002327
:1002F00049F0E1E0F0E0EC0FFD1FE80FF11D9DE299
:100300009083182F61E070E06C0F7D1F610F711DED
:10031000C7010E9422012C960FB6F894DEBF0FBED3
:10032000CDBFDF91CF911F910F91FF90EF90DF90A4
:10033000CF90BF90AF909F908F900895182FBBCF14
:100340008DE991E00C94A8018DE991E00C94B8013D
:100350001092C50087E68093C400E2ECF0E0808153
:1003600086608083E1ECF0E080818861808308957D
:1003700008956093C6008091C00085FD02C0000012
:10038000FACF0895FF920F931F93CF93DF93EC0161
:10039000F62E042F122FE881F9810190F081E02DD3
:1003A0000995E881F9810480F581E02D6F2DCE015A
:1003B0000995E881F9810480F581E02D602FCE0157
:1003C0000995E881F9810480F581E02D612FCE0146
:1003D0000995E881F9810280F381E02DCE01DF915A
:1003E000CF911F910F91FF900994EF92FF920F937D
:1003F0001F93CF93DF93EC01E62EF42E122F032FE1
:10040000E881F9810190F081E02D0995E881F98179
:100410000480F581E02D6E2DCE010995E881F981EA
:100420000480F581E02D6F2DCE010995E881F981D9
:100430000480F581E02D602FCE010995E881F981D6
:100440000480F581E02D612FCE010995E881F981C5
:100450000280F381E02DCE01DF91CF911F910F91AA
:10046000FF90EF900994CF92DF92EF92FF920F935B
:100470001F93CF93DF93EC01E62EF42E6901E88100
:10048000F9810190F081E02D0995E881F9810480DE
:10049000F581E02D6E2DCE010995E881F98104806A
:1004A000F581E02D6F2DCE01099576010C0D1D1DF6
:1004B000E881F981E016F10649F0D7016D917D01DF
:1004C0000480F581E02DCE010995F2CF0280F38101
:1004D000E02DCE01DF91CF911F910F91FF90EF9012
:1004E000DF90CF9009940F931F93CF93DF93EC018C
:1004F000162F042FE881F9810190F081E02D0995F4
:10050000E881F9810480F581E02D612FCE01099504
:10051000E881F9810480F581E02D602FCE010995F5
:10052000E881F9810190F081E02DCE010995612FDC
:100530006160E881F9810480F581E02DCE010995A3
:10054000E881F9810680F781E02D60E0CE01099510
:10055000182FE881F9810280F381E02DCE01099501
:10056000812FDF91CF911F910F9108950F931F93CA
:10057000CF93DF93EC01162F042FE881F9810190CE
:10058000F081E02D0995E881F9810480F581E02D65
:10059000612FCE010995E881F9810480F581E02D74
:1005A000602FCE010995E881F9810190F081E02D5D
:1005B000CE010995612F6160E881F9810480F581A0
:1005C000E02DCE010995E881F9810680F781E02DC3
:1005D00061E0CE010995082F10E0102F0027E88177
:1005E000F9810680F781E02D60E0CE010995082BA6
:1005F000E881F9810280F381E02DCE010995C801DF
:10060000DF91CF911F910F910895CF92DF92EF92DA
:10061000FF920F931F93CF93DF93EC01F62EE42EFE
:100620006901E881F9810190F081E02D0995E88167
:10063000F9810480F581E02D6F2DCE010995E881C7
:10064000F9810480F581E02D6E2DCE010995E881B8
:10065000F9810190F081E02DCE0109956F2D616047
:10066000E881F9810480F581E02DCE0109957601BC
:100670000C0D1D1DE881F981E016F10651F0068090
:10068000F781E02D61E0CE010995F70181937F01AB
:10069000F1CF0280F381E02DCE01DF91CF911F9148
:1006A0000F91FF90EF90DF90CF90099422E531E019
:1006B000FC013183208306960C945F04CF93DF9373
:1006C000EC010E945603CE01DF91CF910C946100A2
:1006D000CF93DF9306960E946004EC0166E071E020
:1006E0008DE991E00E942201AE01DD0F660B770BD0
:1006F0008DE991E00E94340164E371E08DE991E0BD
:10070000DF91CF910C942201882311F03D98089538
:100710003D9A0895000000000000000000000895C8
:1007200080E00E948403389A81E00E948403389A12
:1007300081E00E94840338980C948A0381E00E942F
:100740008403389881E00E948403389A80E00E94F4
:10075000840338980C948A03CF93DF93D62FC8E094
:1007600080E00E9484030E948A03D7FF24C0389847
:100770000E948A0381E00E9484030E948A03DD0FA5
:10078000C15071F780E00E9484030E948A03389868
:100790000E948A0381E00E9484030E948A03C6B1FA
:1007A00080E00E9484030E948A038C2F80958170D0
:1007B000DF91CF910895389ADBCF1F93CF93DF93CA
:1007C000162F389880E00E9484030E948A03D8E0A4
:1007D000C0E0CC0F81E00E9484030E948A0330991C
:1007E000C16080E00E9484030E948A03D15089F78F
:1007F0001123A9F0389A0E948A0381E00E948403A1
:100800000E948A0380E00E9484030E948A03389831
:100810000E948A038C2FDF91CF911F910895389801
:10082000EACFCF93DF93CDB7DEB768970FB6F894D2
:10083000DEBF0FBECDBF82E591E09A8389838AE354
:1008400091E09C838B83389881E00E9484034098D8
:100850004598CE0107960E945E04BE016D5F7F4FF2
:10086000CE0107960E94DA058C0167E171E08DE9FF
:1008700091E00E942201A801110F660B770B8DE910
:1008800091E00E94340164E371E08DE991E00E94FF
:10089000220120E044E650E0BE016F5F7F4F88E513
:1008A00091E00E94800064E271E08DE991E00E9495
:1008B000220188E591E00E94A300FBCF08950895EE
:1008C0000F931F93CF93DF93EC0188899989DC0103
:1008D000ED91FC910084F185E02D21E04BE062E593
:1008E0000995888999899E012E5F3F4FDC01ED9122
:1008F000FC910288F389E02D0EE010E044E162E50E
:1009000009952C853D85322723273227C901069773
:100910008A3F9340B0F48881998143E0880F991F02
:100920004A95E1F7820F931F69E070E00E949507F6
:100930007983688388819981DF91CF911F910F918D
:10094000089580E094E099838883F4CFAF92BF92BA
:10095000CF92DF92EF92FF920F931F93CF93DF938B
:10096000EC015B018A01DB011C9288899989DC0119
:10097000ED91FC910084F185E02D21E040E862E5F5
:10098000099588899989DC01ED91FC910084F185B4
:10099000E02D21E04FEF62E5099588899989DC0116
:1009A000ED91FC910084F185E02D20E040E062E5CE
:1009B000099588899989DC01ED91FC910084F18584
:1009C000E02D26E04FEF62E50995E888F988D70128
:1009D000ED91FC91C084D1840684F785E02D43E835
:1009E00062E5C7010995282F246043E862E5C70145
:1009F000F601099588899989DC01ED91FC910084C3
:100A0000F185E02D27E04FEF62E509958889998906
:100A1000DC01ED91FC910084F185E02D21E041E8BD
:100A200062E5099588899989DC01ED91FC91008442
:100A3000F185E02D21E040E862E5099588899989F2
:100A4000DC01ED91FC910084F185E02D2BE644E979
:100A500062E5099588899989DC01ED91FC91008412
:100A6000F185E02D20E043E862E5099581E4C82E98
:100A700082E4D82E8FE0E82EF12C88899989DC0158
:100A8000ED91FC910684F785E02D43E862E5099538
:100A9000811108C0B1E0CB1AD108E108F10869F76B
:100AA00080E07DC088899989DC01ED91FC9100840A
:100AB000F185E02D21E043E862E50995888999896F
:100AC000DC01ED91FC910684F785E02D42E962E5B9
:100AD0000995982F9F77F5019083881F8827881F95
:100AE000D8018C9388899989DC01ED91FC9100846F
:100AF000F185E02D20E041E862E509958889998932
:100B0000DC01ED91FC910084F185E02D26E04FEFB2
:100B100062E5099508891989D801ED91FC91E08475
:100B2000F1840684F785E02D43E862E5C801099564
:100B3000282F43E862E5C801F7010995888999895A
:100B4000DC01ED91FC910084F185E02D21E04FEF77
:100B500062E5099588899989DC01ED91FC91008411
:100B6000F185E02D21E040E062E5099588899989C9
:100B7000DC01ED91FC910084F185E02D20E04FEF48
:100B800062E5099588899989DC01ED91FC910084E1
:100B9000F185E02D20E040E862E5099581E0DF91F4
:100BA000CF911F910F91FF90EF90DF90CF90BF906A
:100BB000AF900895CF92DF92EF92FF920F931F9321
:100BC000CF93DF93CDB7DEB728970FB6F894DEBF8B
:100BD0000FBECDBF7C018B01DC0151967C936E93DF
:100BE000509780E090E28D939C93DB01ED91FC9116
:100BF000C084D1840684F785E02D49E862E5C80108
:100C00000995282F216049E862E5C801F601099598
:100C1000D70150968D919C91DC01ED91FC91068459
:100C2000F785E02D40EC62E509958E3E09F07AC12A
:100C3000F70180899189DC01ED91FC910084F185B7
:100C4000E02D21E04FEB62E5099581EA96E8A1E00D
:100C5000B0E00197A109B10911F00000FACFF70146
:100C600080899189DC01ED91FC910084F185E02D72
:100C700020E048E862E50995F70180899189DC0167
:100C8000ED91FC910084F185E02D21E040E862E5E2
:100C90000995F70180899189DC01ED91FC9100842F
:100CA000F185E02D21E04FEF62E50995F70180899C
:100CB0009189DC01ED91FC910084F185E02D20E02B
:100CC00040E062E50995F70180899189DC01ED91A9
:100CD000FC910684F785E02D41E962E50995F7016D
:100CE00080899189DC01ED91FC910084F185E02DF2
:100CF00021E040E062E50995F70180899189DC01F6
:100D0000ED91FC910084F185E02D20E04FEF62E54C
:100D10000995F70180899189DC01ED91FC910084AE
:100D2000F185E02D20E040E862E509951886AE01E6
:100D3000495F5F4FBE01685F7F4FC7010E94A604F5
:100D4000F70180899189DC01ED91FC910288F3899A
:100D5000E02D06E010E09E012F5F3F4F40EB62E583
:100D60000995F70180899189DC01ED91FC9100845E
:100D7000F185E02D21E04FEF62E50995F7018089CB
:100D80009189DC01ED91FC910084F185E02D20E05A
:100D90004FE462E50995F70180899189DC01ED91C5
:100DA000FC910084F185E02D2CE24EE462E509958A
:100DB000F70180899189DC01ED91FC910084F18536
:100DC000E02D20E04FEF62E50995F70180899189D8
:100DD000DC01ED91FC910084F185E02D24EB46EBE4
:100DE00062E509958F81ACE0811101C0A0E0B88572
:100DF00080E090E001E010E0482F4695469546954A
:100E000050E021E030E02C0F3D1F240F351FF90189
:100E10002081682F67708A1710F0B91379C0E1E05C
:100E2000F0E0EC0FFD1F4E0F5F1FF80102C0EE0F48
:100E3000FF1F6A95E2F7BF0160952623FA01208320
:100E40008F5F8033C9F6D70150968D919C91DC015C
:100E5000ED91FC910484F585E02D06E010E09E0103
:100E60002F5F3F4F40EB62E50995F701808991893B
:100E7000DC01ED91FC910684F785E02D44E862E504
:100E80000995182FF70180899189DC01ED91FC917A
:100E90000084F185E02D24E04AE062E50995F70140
:100EA00080899189212F2F7EDC01ED91FC910084B6
:100EB000F185E02D44E862E50995F7018089918983
:100EC000DC01ED91FC910084F185E02D21E04BE007
:100ED00062E50995F70180899189DC01ED91FC912A
:100EE0000084F185E02D22E040E062E5099590E084
:100EF00080E028960FB6F894DEBF0FBECDBFDF911D
:100F0000CF911F910F91FF90EF90DF90CF900895B8
:100F100030E002C0359527956A95E2F720FF90CF23
:100F20009F5F8ECF8EEF9FEFE4CF97FB072E16F4D7
:100F3000009407D077FD09D00E94EA0707FC05D08E
:100F40003EF4909581959F4F0895709561957F4FE0
:100F50000895A1E21A2EAA1BBB1BFD010DC0AA1FFA
:100F6000BB1FEE1FFF1FA217B307E407F50720F012
:100F7000A21BB30BE40BF50B661F771F881F991F8D
:100F80001A9469F760957095809590959B01AC01D6
:100F9000BD01CF010895052E97FB1EF400940E9419
:100FA000E20757FD07D00E94A90707FC03D04EF4C3
:100FB0000C94E20750954095309521953F4F4F4F47
:100FC0005F4F089590958095709561957F4F8F4FF5
:100FD0009F4F0895AA1BBB1B51E107C0AA1FBB1F4F
:100FE000A617B70710F0A61BB70B881F991F5A95B5
:100FF000A9F780959095BC01CD010895EE0FFF1FD4
:101000000590F491E02D09940F931F93CF93DF93F4
:101010008230910510F482E090E0E091A001F0911F
:10102000A10130E020E0B0E0A0E0309799F4211574
:10103000310509F44AC0281B390B24303105D8F595
:101040008A819B816115710589F1FB0193838283FC
:10105000FE0111C040815181028113814817590757
:10106000E0F04817590799F4109761F012960C9325
:10107000129713961C933296CF01DF91CF911F9157
:101080000F9108950093A0011093A101F4CF2115B1
:10109000310551F04217530738F0A901DB019A01DD
:1010A000BD01DF01F801C1CFEF01F9CF9093A1019C
:1010B0008093A001CDCFFE01E20FF31F81939193A6
:1010C0002250310939832883D7CF20919E01309156
:1010D0009F01232B41F420910201309103013093B1
:1010E0009F0120939E012091000130910101211563
:1010F000310541F42DB73EB74091040150910501EF
:10110000241B350BE0919E01F0919F01E217F3073C
:10111000A0F42E1B3F0B2817390778F0AC014E5F67
:101120005F4F2417350748F04E0F5F1F50939F0104
:1011300040939E01819391939FCFF0E0E0E09CCF9C
:10114000CF93DF930097E9F0FC013297138212826C
:10115000A091A001B091A101ED0130E020E0109735
:10116000A1F420813181820F931F20919E01309143
:101170009F012817390709F061C0F0939F01E093A0
:101180009E01DF91CF910895EA01CE17DF07E8F5C0
:101190004A815B819E0141155105B1F7E901FB834D
:1011A000EA8349915991C40FD51FEC17FD0761F4EB
:1011B000808191810296840F951FE901998388832C
:1011C000828193819B838A83F0E0E0E012968D9187
:1011D0009C9113970097B9F52D913C911197CD01F2
:1011E0000296820F931F20919E0130919F01281734
:1011F000390739F6309751F51092A1011092A001EC
:10120000B0939F01A0939E01BCCFD383C283408142
:101210005181840F951FC817D90761F44E5F5F4F46
:1012200088819981480F591F518340838A819B810E
:10123000938382832115310509F0B0CFF093A1018A
:10124000E093A0019ECFFD01DC01C0CF138212828A
:10125000D7CF10E0C6E3D0E004C0FE010E94FE0735
:0C1260002196C733D107C9F7F894FFCFDF
:10126C000000A20120004C415345525F6469737425
:10127C00616E63653A20004C415345525F696E695B
:10128C00743A20000A7465726D696E616C20726527
:10129C006164790A0A00000000009E039003AC030D
:1012AC00DD03C201F50133027302B602050300002F
:0812BC00000056035E03680305
:00000001FF
