:100000000C9439000C9461000C9461000C94610014
:100010000C9461000C9461000C9461000C946100DC
:100020000C9461000C9461000C9461000C946100CC
:100030000C9461000C9461000C9458010C946100C4
:100040000C9461000C9461000C9461000C946100AC
:100050000C9461000C9461000C9461000C9461009C
:100060000C9461000C946100AA00BF013302B4003B
:10007000370211241FBECFEFD8E0DEBFCDBF11E0A5
:10008000A0E0B1E0EAE3F7E002C005900D92A433EE
:10009000B107D9F721E0A4E3B1E001C01D92A33874
:1000A000B207E1F710E0C7E3D0E004C02197FE01FA
:1000B0000E945D02C433D107C9F70E9496000C94D8
:1000C00090030C94000008950C94CF00CF92DF921F
:1000D000EF92FF92FC0183819481009731F00197A8
:1000E00049F42D981482138205C02D9A81E090E086
:1000F0009483838389E391E00E9439016B017C0141
:1001000066E071E08EE791E00E94C301B701A601AD
:100110008EE791E00E94E70160E171E08EE791E0F7
:10012000FF90EF90DF90CF900C94C30121E044E664
:1001300050E064E371E089E391E00E94F60067E13A
:1001400071E08EE791E00E94C30189E391E00E9493
:100150001901FBCFE4E3F1E08DE291E0918380832C
:10016000259A14821382089508951092C50087E697
:100170008093C400E2ECF0E0808186608083E1EC53
:10018000F0E0808188618083089508956093C600BF
:100190008091C00085FD02C00000FACF08950C9444
:1001A000F802EAE3F1E080E090E01182108213822D
:1001B000128215821482DC01A65CBE4F16961C9238
:1001C000169717961C92389608968034910569F711
:1001D00084B5826084BD89EF87BD83E085BD809151
:1001E0006E00826080936E0078940895F894EAE33C
:1001F000F1E080E090E0A081B181AB2B89F4FC01BB
:1002000033E0EE0FFF1F3A95E1F7E65CFE4F718396
:10021000608353834283558344831682278307C0B8
:10022000019638968830910531F78FEF9FEF7894DB
:100230000895CF93DF93C0E0D0E0FE01E65CFE4F6F
:1002400080819181009771F02681222359F01682D6
:100250002781211107C0DC01ED91FC910480F5811B
:10026000E02D09952896C034D10539F7DF91CF915B
:100270000895CF93DF9300D000D0CDB7DEB7F894C8
:1002800080917A0190917B01A0917C01B0917D01D8
:1002900089839A83AB83BC83789469817A818B81CB
:1002A0009C810F900F900F900F90DF91CF91089548
:1002B0001F920F920FB60F9211240F931F932F933B
:1002C0003F934F935F936F937F938F939F93AF93DE
:1002D000BF93CF93DF93EF93FF93CAE3D1E000E0A6
:1002E00010E08C819D81009721F001979D838C8384
:1002F00018C08A819B819D838C83F801E65CFE4F48
:1003000086818F3F11F08F5F86838781882349F034
:1003100088819981DC01ED91FC910480F581E02DCB
:100320000995085F1F4F289600341105D1F680917A
:100330007A0190917B01A0917C01B0917D010196A1
:10034000A11DB11D80937A0190937B01A0937C0144
:10035000B0937D01FF91EF91DF91CF91BF91AF916C
:100360009F918F917F916F915F914F913F912F91CD
:100370001F910F910F900FBE0F901F90189589E35A
:1003800091E00C94D1000F931F93CF93DF938C01D6
:10039000EB016991662321F0C8010E94C600F9CFE4
:1003A000DF91CF911F910F9108950F931F93CF93DA
:1003B000DF938C01EB016991662321F0C8010E9453
:1003C000C600F9CFDF91CF911F910F9108958F92C1
:1003D0009F92AF92BF92CF92DF92EF92FF921F93C4
:1003E000CF93DF93CDB7DEB72C970FB6F894DEBF6F
:1003F0000FBECDBF6C011C861AE09AE0892E912CAD
:10040000A12CB12CEE24E394F12CEC0EFD1EE10E98
:10041000F11CCB01BA01A50194010E943B02942F6B
:10042000852F605DF7016083A901692F782F115036
:10043000411551056105710529F7B701C6010E94F3
:10044000D5012C960FB6F894DEBF0FBECDBFDF915D
:10045000CF911F91FF90EF90DF90CF90BF90AF9022
:100460009F908F9008958EE791E00C94B5008EE7F1
:1004700091E00C94C500A1E21A2EAA1BBB1BFD0142
:100480000DC0AA1FBB1FEE1FFF1FA217B307E40773
:10049000F50720F0A21BB30BE40BF50B661F771FCB
:1004A000881F991F1A9469F76095709580959095AB
:1004B0009B01AC01BD01CF010895EE0FFF1F059018
:1004C000F491E02D0994CF93DF938230910510F4DD
:1004D00082E090E0E0918101F091820120E030E043
:1004E000C0E0D0E0309711F14081518148175907A1
:1004F000C0F04817590761F482819381209719F061
:100500009B838A832BC0909382018093810126C0B4
:100510002115310519F04217530718F49A01BE014D
:10052000DF01EF010280F381E02DDCCF21153105E1
:1005300009F1281B390B2430310590F412968D9166
:100540009C9113976115710521F0FB0193838283C0
:1005500004C09093820180938101FD01329644C0D2
:10056000FD01E20FF31F81939193225031092D93E6
:100570003C933AC020917F0130918001232B41F4BC
:1005800020910201309103013093800120937F017B
:1005900020910001309101012115310541F42DB761
:1005A0003EB74091040150910501241B350BE091A9
:1005B0007F01F0918001E217F307A0F42E1B3F0B9F
:1005C0002817390778F0AC014E5F5F4F24173507C5
:1005D00048F04E0F5F1F5093800140937F0181933D
:1005E000919302C0E0E0F0E0CF01DF91CF91089558
:1005F0000F931F93CF93DF93009709F48CC0FC01F6
:1006000032971382128200918101109182010115AB
:10061000110581F420813181820F931F20917F0188
:10062000309180012817390779F5F0938001E09324
:100630007F0171C0D80140E050E0AE17BF0750F411
:1006400012962D913C911397AD012115310509F1B9
:10065000D901F3CF9D01DA01338322836081718157
:10066000860F971F8217930769F4EC01288139815F
:10067000260F371F2E5F3F4F318320838A819B8156
:1006800093838283452B29F4F0938201E0938101C7
:1006900042C01396FC93EE931297ED014991599144
:1006A0009E01240F351FE217F30771F480819181B9
:1006B000840F951F029611969C938E93828193814D
:1006C00013969C938E931297E0E0F0E0D801129677
:1006D0008D919C911397009719F0F8018C01F6CF3A
:1006E0008D919C9198012E5F3F4F820F931F209117
:1006F0007F01309180012817390769F4309729F478
:10070000109282011092810102C013821282109312
:10071000800100937F01DF91CF911F910F91089588
:1007200010E0C7E3D0E004C0FE010E945D02219604
:0A073000C933D107C9F7F894FFCFD1
:10073A00000083012000757074696D65203A2000FD
:10074A00205B6D735D0A000A7465726D696E616C77
:10075A002072656164790A0A00000000006300647F
:04076A000066000025
:00000001FF
