:100000000C9437000C945F000C945F000C945F001C
:100010000C945F000C945F000C945F000C945F00E4
:100020000C945F000C945F000C945F000C945F00D4
:100030000C945F000C945F000C944D020C945F00D4
:100040000C945F000C945F000C945F000C945F00B4
:100050000C945F000C945F000C945F000C945F00A4
:100060000C945F000C945F00AA02F603FA031124BB
:100070001FBECFEFD8E0DEBFCDBF11E0A0E0B1E002
:10008000E8E9F3E202C005900D92AC3AB107D9F766
:1000900021E0ACEAB1E001C01D92A63FB207E1F752
:1000A00010E0C6E3D0E004C02197FE010E94C80E14
:1000B000C433D107C9F70E94210E0C94BF110C94D0
:1000C0000000CF93DF93EC01198218821B821A8201
:1000D0001D821C8286E0FE01DE01169601900D92C3
:1000E0008A95E1F786E0FE01DE011C9601900D92F3
:1000F0008A95E1F7DF91CF9108950895CF93DF932B
:10010000EC01CB017F8B6E8BDB01ED91FC910084C8
:10011000F185E02D21E040E16CE109958E899F8910
:10012000DC01ED91FC910084F185E02D20E841E1B6
:100130006CE109958E899F89DC01ED91FC91008429
:10014000F185E02D29E040E16CE109958E899F89D8
:10015000DC01ED91FC910084F185E02D20E041E18E
:100160006CE109958E899F89DC01ED91FC910684F3
:10017000F785E02D47E06CE1099521E030E0843C13
:1001800011F430E020E088279927821B930BDF9140
:10019000CF910895CF92DF92EF92FF92CF93DF93AA
:1001A000FB01A081B181C281D381448155819D0130
:1001B0000E94960E6B017C019E01DE010E94960E4C
:1001C000C60ED71EE81EF91E9A01DA010E94960E8D
:1001D0006C0D7D1D8E1D9F1DDF91CF91FF90EF90C7
:1001E000DF90CF900895EF92FF920F931F93CF93DC
:1001F000DF9300D000D000D0CDB7DEB78C0186E011
:10020000F801D801169601900D928A95E1F7D80170
:1002100056968D919C91DC01ED91FC910190F081BD
:10022000E02D0995F80186899789DC01ED91FC9113
:100230000480F581E02D6CE10995F80186899789A4
:10024000DC01ED91FC910480F581E02D61E00995E0
:10025000F80186899789DC01ED91FC910280F38198
:10026000E02D0995F80186899789DC01ED91FC91D3
:100270000190F081E02D0995F80186899789DC01CC
:10028000ED91FC910480F581E02D6DE10995F80177
:1002900086899789DC01ED91FC910680F781E02D3C
:1002A00061E00995E82EF12CFE2CEE24F8018689F8
:1002B0009789DC01ED91FC910680F781E02D61E0EA
:1002C0000995E82AF801F182E08286899789DC01A4
:1002D000ED91FC910680F781E02D61E00995E82E13
:1002E000F12CFE2CEE24F80186899789DC01ED9132
:1002F000FC910680F781E02D61E00995E82AF8017C
:10030000F382E28286899789DC01ED91FC91068077
:10031000F781E02D61E00995E82EF12CFE2CEE240A
:10032000F80186899789DC01ED91FC910680F781BF
:10033000E02D60E00995E82AF801F582E4828689DB
:100340009789DC01ED91FC910280F381E02D099504
:10035000F8018081918126813781821B930B24854E
:10036000358543E0220F331F4A95E1F7820F931F33
:1003700029E030E0B9010E94410E758764878281CF
:10038000938140855185841B950B4685578563E095
:10039000440F551F6A95E1F7840F951FB9010E941C
:1003A000410E778766878481958142855385841BBA
:1003B000950B4089518973E0440F551F7A95E1F7F9
:1003C000840F951FB9010E94410E718B608BB8019B
:1003D000645F7F4FC8010E94CA00D80152966D9396
:1003E0007D938D939C93559786E0F801DE011196DD
:1003F00001900D928A95E1F729813A814B815C81C8
:100400006D817E8180E090E026960FB6F894DEBF85
:100410000FBECDBFDF91CF911F910F91FF90EF9055
:100420000895EDEAF1E011821082138212821582A2
:10043000148216821782389681E0ED3EF80799F70C
:1004400084B5826084BD89EF87BD83E085BD8091DE
:100450006E00826080936E0078940895CF93DF934E
:1004600000D000D0CDB7DEB7F8948091ED01909127
:10047000EE01A091EF01B091F00189839A83AB83E3
:10048000BC83789469817A818B819C810F900F90D5
:100490000F900F90DF91CF9108951F920F920FB69A
:1004A0000F9211242F933F934F935F936F937F93FA
:1004B0008F939F93AF93BF93CF93DF93EF93FF936C
:1004C000CDEAD1E08C819D81009771F101979D83E8
:1004D0008C832896B1E0CD3EDB07A1F78091ED013A
:1004E0009091EE01A091EF01B091F0010196A11D54
:1004F000B11D8093ED019093EE01A093EF01B093B5
:10050000F001FF91EF91DF91CF91BF91AF919F915A
:100510008F917F916F915F914F913F912F910F90AC
:100520000FBE0F901F9018958A819B819D838C83AD
:100530008E818F3F11F08F5F8E838F81882349F2E8
:1005400088819981DC01ED91FC910480F581E02D99
:100550000995BFCF8CEA91E00C9411021092C5006E
:1005600087E68093C400E2ECF0E0808186608083BF
:10057000E1ECF0E0808188618083089508956A301D
:1005800049F48DE08093C6008091C00085FD02C0D3
:100590000000FACF6093C6008091C00085FD02C0C4
:1005A0000000FACF08950F931F93CF93DF938C0130
:1005B000EB016991662321F0C8010E94BF02F9CFC7
:1005C000DF91CF911F910F9108958F929F92AF92DB
:1005D000BF92CF92DF92EF92FF920F931F93CF9330
:1005E000DF93CDB7DEB72C970FB6F894DEBF0FBE02
:1005F000CDBF7C0100E077FF08C0709560955095F5
:1006000041955F4F6F4F7F4F01E01C861AE09AE0E3
:10061000892E912CA12CB12CCC24C394D12CCC0E9E
:10062000DD1EC10ED11CCB01BA01A50194010E94AF
:10063000770E942F852F605DF6016083A901692FE5
:10064000782F8FEF810F411551056105710539F53F
:10065000002349F0E1E0F0E0EC0FFD1FE80FF11D91
:100660009DE29083182F61E070E06C0F7D1F610F99
:10067000711DC7010E94D3022C960FB6F894DEBFFD
:100680000FBECDBFDF91CF911F910F91FF90EF90E3
:10069000DF90CF90BF90AF909F908F900895182FCC
:1006A000BBCF4F925F926F927F928F929F92AF9249
:1006B000BF92CF92DF92EF92FF920F931F93CF934F
:1006C000DF938C012A013B01C22F20E030E0A90119
:1006D000CB01B2010E943B0FD0E287FF05C077FA41
:1006E000709477F87094DDE2EE24E394F12C90E0BE
:1006F00080E04C2F50E02AE08417950740F4B701C2
:10070000269F7001279FF00C11240196F5CFC3019D
:10071000B2010E94400F4B015C010E94780F9B01C7
:10072000AC01C301B2010E94CE0E2B013C01B70106
:1007300090E080E00E94760F9B01AC01C301B20102
:100740000E942D100E94400F6B017C01F7FE08C033
:10075000F094E094D094C094C11CD11CE11CF11C15
:100760006D2FC8010E94BF02B501A401C8010E94FB
:10077000E5026EE2C8010E94BF0280E021E030E0A5
:100780009AE0A901949F9001959F300D11248F5FED
:10079000A901032E000C660B770B4C155D056E0549
:1007A0007F057CF3C81BB12CA12CD0E0AC16BD0694
:1007B00040F460E3C8010E94BF025FEFA51AB50ACA
:1007C000F5CFB701A601C801DF91CF911F910F911D
:1007D000FF90EF90DF90CF90BF90AF909F908F9061
:1007E0007F906F905F904F900C94E50281EF91E0C5
:1007F0000C94AE0281EF91E00C94BE020C94361181
:10080000FF920F931F93CF93DF93EC01F62E042FEB
:10081000122FE881F9810190F081E02D0995E8819E
:10082000F9810480F581E02D6F2DCE010995E881D5
:10083000F9810480F581E02D602FCE010995E881D2
:10084000F9810480F581E02D612FCE010995E881C1
:10085000F9810280F381E02DCE01DF91CF911F91CC
:100860000F91FF900994EF92FF920F931F93CF93F4
:10087000DF93EC01E62EF42E122F032FE881F9818D
:100880000190F081E02D0995E881F9810480F581DE
:10089000E02D6E2DCE010995E881F9810480F58166
:1008A000E02D6F2DCE010995E881F9810480F58155
:1008B000E02D602FCE010995E881F9810480F58152
:1008C000E02D612FCE010995E881F9810280F38145
:1008D000E02DCE01DF91CF911F910F91FF90EF900E
:1008E0000994CF92DF92EF92FF920F931F93CF93D1
:1008F000DF93EC01E62EF42E6901E881F981019085
:10090000F081E02D0995E881F9810480F581E02DE1
:100910006E2DCE010995E881F9810480F581E02DE5
:100920006F2DCE01099576010C0D1D1DE881F98111
:10093000E016F10649F0D7016D917D010480F58143
:10094000E02DCE010995F2CF0280F381E02DCE019A
:10095000DF91CF911F910F91FF90EF90DF90CF909B
:1009600009940F931F93CF93DF93EC01162F042F5D
:10097000E881F9810190F081E02D0995E881F98104
:100980000480F581E02D612FCE010995E881F98180
:100990000480F581E02D602FCE010995E881F98171
:1009A0000190F081E02DCE010995612F6160E88111
:1009B000F9810480F581E02DCE010995E881F98166
:1009C0000680F781E02D60E0CE010995182FE881BF
:1009D000F9810280F381E02DCE010995812FDF910D
:1009E000CF911F910F9108950F931F93CF93DF9392
:1009F000EC01162F042FE881F9810190F081E02DA0
:100A00000995E881F9810480F581E02D612FCE01FF
:100A10000995E881F9810480F581E02D602FCE01F0
:100A20000995E881F9810190F081E02DCE010995C9
:100A3000612F6160E881F9810480F581E02DCE01AC
:100A40000995E881F9810680F781E02D61E0CE010A
:100A50000995082F10E0102F0027E881F981068002
:100A6000F781E02D60E0CE010995082BE881F9813E
:100A70000280F381E02DCE010995C801DF91CF916D
:100A80001F910F910895CF92DF92EF92FF920F93F3
:100A90001F93CF93DF93EC01F62EE42E6901E881DA
:100AA000F9810190F081E02D0995E881F9810480B8
:100AB000F581E02D6F2DCE010995E881F981048043
:100AC000F581E02D6E2DCE010995E881F981019027
:100AD000F081E02DCE0109956F2D6160E881F981EB
:100AE0000480F581E02DCE01099576010C0D1D1DC8
:100AF000E881F981E016F10651F00680F781E02DDA
:100B000061E0CE010995F70181937F01F1CF028069
:100B1000F381E02DCE01DF91CF911F910F91FF90D6
:100B2000EF90DF90CF900994FF920F931F93CF9394
:100B3000DF93EC01F62E042F122FE881F98101904A
:100B4000F081E02D0995E881F9810480F581E02D9F
:100B50006F2DCE010995E881F9810480F581E02DA2
:100B6000602FCE010995E881F9810480F581E02D9F
:100B7000612FCE010995E881F9810280F381E02D92
:100B8000CE01DF91CF911F910F91FF900994EF92C9
:100B9000FF920F931F93CF93DF93EC01E62EF42E79
:100BA000122F032FE881F9810190F081E02D099542
:100BB000E881F9810480F581E02D6E2DCE01099543
:100BC000E881F9810480F581E02D6F2DCE01099532
:100BD000E881F9810480F581E02D602FCE0109952F
:100BE000E881F9810480F581E02D612FCE0109951E
:100BF000E881F9810280F381E02DCE01DF91CF9170
:100C00001F910F91FF90EF900994CF92DF92EF9296
:100C1000FF920F931F93CF93DF93EC01E62EF42EF8
:100C20006901E881F9810190F081E02D0995E88161
:100C3000F9810480F581E02D6E2DCE010995E881C2
:100C4000F9810480F581E02D6F2DCE0109957601A3
:100C50000C0D1D1DE881F981E016F10649F0D70160
:100C60006D917D010480F581E02DCE010995F2CFD3
:100C70000280F381E02DCE01DF91CF911F910F9182
:100C8000FF90EF90DF90CF9009940F931F93CF9335
:100C9000DF93EC01162F042FE881F9810190F08198
:100CA000E02D0995E881F9810480F581E02D612F1F
:100CB000CE010995E881F9810480F581E02D602F4E
:100CC000CE010995E881F9810190F081E02DCE01F6
:100CD0000995612F6160E881F9810480F581E02D3B
:100CE000CE010995E881F9810680F781E02D60E069
:100CF000CE010995182FE881F9810280F381E02D5A
:100D0000CE010995812FDF91CF911F910F91089509
:100D10000F931F93CF93DF93EC01162F042FE881DD
:100D2000F9810190F081E02D0995E881F981048035
:100D3000F581E02D612FCE010995E881F9810480CC
:100D4000F581E02D602FCE010995E881F9810190B0
:100D5000F081E02DCE010995612F6160E881F98174
:100D60000480F581E02DCE010995E881F9810680A6
:100D7000F781E02D61E0CE010995082F10E0102FDA
:100D80000027E881F9810680F781E02D60E0CE013F
:100D90000995082BE881F9810280F381E02DCE01CD
:100DA0000995C801DF91CF911F910F910895CF92BE
:100DB000DF92EF92FF920F931F93CF93DF93EC019B
:100DC000F62EE42E6901E881F9810190F081E02D91
:100DD0000995E881F9810480F581E02D6F2DCE0120
:100DE0000995E881F9810480F581E02D6E2DCE0111
:100DF0000995E881F9810190F081E02DCE010995F6
:100E00006F2D6160E881F9810480F581E02DCE01CC
:100E1000099576010C0D1D1DE881F981E016F1069A
:100E200051F00680F781E02D61E0CE010995F701D0
:100E300081937F01F1CF0280F381E02DCE01DF911C
:100E4000CF911F910F91FF90EF90DF90CF90099479
:100E5000FF920F931F93CF93DF93EC01F62E042F95
:100E6000122FE881F9810190F081E02D0995E88148
:100E7000F9810480F581E02D6F2DCE010995E8817F
:100E8000F9810480F581E02D602FCE010995E8817C
:100E9000F9810480F581E02D612FCE010995E8816B
:100EA000F9810280F381E02DCE01DF91CF911F9176
:100EB0000F91FF900994EF92FF920F931F93CF939E
:100EC000DF93EC01E62EF42E122F032FE881F98137
:100ED0000190F081E02D0995E881F9810480F58188
:100EE000E02D6E2DCE010995E881F9810480F58110
:100EF000E02D6F2DCE010995E881F9810480F581FF
:100F0000E02D602FCE010995E881F9810480F581FB
:100F1000E02D612FCE010995E881F9810280F381EE
:100F2000E02DCE01DF91CF911F910F91FF90EF90B7
:100F30000994CF92DF92EF92FF920F931F93CF937A
:100F4000DF93EC01E62EF42E6901E881F98101902E
:100F5000F081E02D0995E881F9810480F581E02D8B
:100F60006E2DCE010995E881F9810480F581E02D8F
:100F70006F2DCE01099576010C0D1D1DE881F981BB
:100F8000E016F10649F0D7016D917D010480F581ED
:100F9000E02DCE010995F2CF0280F381E02DCE0144
:100FA000DF91CF911F910F91FF90EF90DF90CF9045
:100FB00009940F931F93CF93DF93EC01162F042F07
:100FC000E881F9810190F081E02D0995E881F981AE
:100FD0000480F581E02D612FCE010995E881F9812A
:100FE0000480F581E02D602FCE010995E881F9811B
:100FF0000190F081E02DCE010995612F6160E881BB
:10100000F9810480F581E02DCE010995E881F9810F
:101010000680F781E02D60E0CE010995182FE88168
:10102000F9810280F381E02DCE010995812FDF91B6
:10103000CF911F910F9108950F931F93CF93DF933B
:10104000EC01162F042FE881F9810190F081E02D49
:101050000995E881F9810480F581E02D612FCE01A9
:101060000995E881F9810480F581E02D602FCE019A
:101070000995E881F9810190F081E02DCE01099573
:10108000612F6160E881F9810480F581E02DCE0156
:101090000995E881F9810680F781E02D61E0CE01B4
:1010A0000995082F10E0102F0027E881F9810680AC
:1010B000F781E02D60E0CE010995082BE881F981E8
:1010C0000280F381E02DCE010995C801DF91CF9117
:1010D0001F910F910895CF92DF92EF92FF920F939D
:1010E0001F93CF93DF93EC01F62EE42E6901E88184
:1010F000F9810190F081E02D0995E881F981048062
:10110000F581E02D6F2DCE010995E881F9810480EC
:10111000F581E02D6E2DCE010995E881F9810190D0
:10112000F081E02DCE0109956F2D6160E881F98194
:101130000480F581E02DCE01099576010C0D1D1D71
:10114000E881F981E016F10651F00680F781E02D83
:1011500061E0CE010995F70181937F01F1CF028013
:10116000F381E02DCE01DF91CF911F910F91FF9080
:10117000EF90DF90CF900994FF920F931F93CF933E
:10118000DF93EC01F62E042F122FE881F9810190F4
:10119000F081E02D0995E881F9810480F581E02D49
:1011A0006F2DCE010995E881F9810480F581E02D4C
:1011B000602FCE010995E881F9810480F581E02D49
:1011C000612FCE010995E881F9810280F381E02D3C
:1011D000CE01DF91CF911F910F91FF900994EF9273
:1011E000FF920F931F93CF93DF93EC01E62EF42E23
:1011F000122F032FE881F9810190F081E02D0995EC
:10120000E881F9810480F581E02D6E2DCE010995EC
:10121000E881F9810480F581E02D6F2DCE010995DB
:10122000E881F9810480F581E02D602FCE010995D8
:10123000E881F9810480F581E02D612FCE010995C7
:10124000E881F9810280F381E02DCE01DF91CF9119
:101250001F910F91FF90EF900994CF92DF92EF9240
:10126000FF920F931F93CF93DF93EC01E62EF42EA2
:101270006901E881F9810190F081E02D0995E8810B
:10128000F9810480F581E02D6E2DCE010995E8816C
:10129000F9810480F581E02D6F2DCE01099576014D
:1012A0000C0D1D1DE881F981E016F10649F0D7010A
:1012B0006D917D010480F581E02DCE010995F2CF7D
:1012C0000280F381E02DCE01DF91CF911F910F912C
:1012D000FF90EF90DF90CF9009940F931F93CF93DF
:1012E000DF93EC01162F042FE881F9810190F08142
:1012F000E02D0995E881F9810480F581E02D612FC9
:10130000CE010995E881F9810480F581E02D602FF7
:10131000CE010995E881F9810190F081E02DCE019F
:101320000995612F6160E881F9810480F581E02DE4
:10133000CE010995E881F9810680F781E02D60E012
:10134000CE010995182FE881F9810280F381E02D03
:10135000CE010995812FDF91CF911F910F910895B3
:101360000F931F93CF93DF93EC01162F042FE88187
:10137000F9810190F081E02D0995E881F9810480DF
:10138000F581E02D612FCE010995E881F981048076
:10139000F581E02D602FCE010995E881F98101905A
:1013A000F081E02DCE010995612F6160E881F9811E
:1013B0000480F581E02DCE010995E881F981068050
:1013C000F781E02D61E0CE010995082F10E0102F84
:1013D0000027E881F9810680F781E02D60E0CE01E9
:1013E0000995082BE881F9810280F381E02DCE0177
:1013F0000995C801DF91CF911F910F910895CF9268
:10140000DF92EF92FF920F931F93CF93DF93EC0144
:10141000F62EE42E6901E881F9810190F081E02D3A
:101420000995E881F9810480F581E02D6F2DCE01C9
:101430000995E881F9810480F581E02D6E2DCE01BA
:101440000995E881F9810190F081E02DCE0109959F
:101450006F2D6160E881F9810480F581E02DCE0176
:10146000099576010C0D1D1DE881F981E016F10644
:1014700051F00680F781E02D61E0CE010995F7017A
:1014800081937F01F1CF0280F381E02DCE01DF91C6
:10149000CF911F910F91FF90EF90DF90CF90099423
:1014A0000F931F93CF93DF9325EA31E0FC01318343
:1014B00020838C010E5E1F4F59F0EC01CE58DF4F98
:1014C0000C171D0729F06897CE010E947D00F8CF08
:1014D000DF91CF911F910F910895CF93DF93EC018E
:1014E0000E94500ACE01DF91CF910C94FE039F928F
:1014F000AF92BF92CF92DF92EF92FF920F931F9322
:10150000CF93DF9300D000D000D0CDB7DEB78C01F1
:101510006C0182E1C80ED11CF12CE12CB12CA12C64
:10152000912CC6010E94F30029833A834B835C838C
:101530006D837E83F60182899389A489B5890B978F
:10154000A105B1051CF0570199249394FFEFEF1A00
:10155000FF0A88E1C80ED11CE4E0EE16F10409F799
:10156000992009F462C08CEA91E00E942E020E9448
:10157000760F0E581F4FF80120813181428153812F
:101580000E94CE0E20E030E04AEF54E40E94281082
:1015900018160CF04AC08CEA91E00E942E020E94BC
:1015A000760FAB01BC01F8014083518362837383E2
:1015B00023E081EF91E00E94510362E271E081EF4C
:1015C00091E00E94D30210E000E041E050E060E0D2
:1015D00070E0A016B10619F040E050E0BA0181EFCA
:1015E00091E00E94E50262E271E081EF91E00E94E9
:1015F000D3020F5F1F4F0430110539F76FE371E01D
:1016000081EF91E026960FB6F894DEBF0FBECDBFF6
:10161000DF91CF911F910F91FF90EF90DF90CF90CE
:10162000BF90AF909F900C94D30226960FB6F8947B
:10163000DEBF0FBECDBFDF91CF911F910F91FF9005
:10164000EF90DF90CF90BF90AF909F900895882348
:1016500011F03D9808953D9A089584E60000815068
:10166000E9F7089581E00E94270B3B9881E00E94F2
:10167000270B3B9A80E00E94270B3B980C942D0B84
:1016800080E00E94270B389A81E00E94270B389A4D
:1016900081E00E94270B38980C942D0B81E00E946A
:1016A000270B389881E00E94270B389A80E00E942F
:1016B000270B38980C942D0B80E00E94270B3B9A47
:1016C00081E00E94270B3B9A81E00E94270B3B9808
:1016D0000C942D0B81E00E94270B3A9881E00E9428
:1016E000270B3A9A80E00E94270B3A980C942D0B16
:1016F00080E00E94270B3A9A81E00E94270B3A9AD9
:1017000081E00E94270B3A980C942D0B81E00E94F7
:10171000270B399881E00E94270B399A80E00E94BC
:10172000270B39980C942D0B80E00E94270B399AD7
:1017300081E00E94270B399A81E00E94270B39989B
:101740000C942D0BCF93DF93D62FC8E080E00E943E
:10175000270B0E942D0BD7FF26C03A980E942D0B15
:1017600081E00E94270B0E942D0BDD0FC15071F705
:1017700080E00E94270B0E942D0B3A980E942D0BAF
:1017800081E00E94270B0E942D0BC6B180E00E94D1
:10179000270B0E942D0BC2FBCC27C0F981E08C27C0
:1017A000DF91CF9108953A9AD9CFCF93DF93D62F77
:1017B000C8E080E00E94270B0E942D0BD7FF25C0B8
:1017C00039980E942D0B81E00E94270B0E942D0B5F
:1017D000DD0FC15071F780E00E94270B0E942D0B96
:1017E00039980E942D0B81E00E94270B0E942D0B3F
:1017F000C6B180E00E94270B0E942D0BC695C170D8
:1018000081E08C27DF91CF910895399ADACFCF9379
:10181000DF93D62FC8E080E00E94270B0E942D0B9B
:10182000D7FF26C03B980E942D0B81E00E94270B1A
:101830000E942D0BDD0FC15071F780E00E94270B35
:101840000E942D0B3B980E942D0B81E00E94270BDC
:101850000E942D0BC6B180E00E94270B0E942D0B29
:10186000C3FBCC27C0F981E08C27DF91CF9108958D
:101870003B9AD9CFCF93DF93D62FC8E080E00E9468
:10188000270B0E942D0BD7FF24C038980E942D0BE8
:1018900081E00E94270B0E942D0BDD0FC15071F7D4
:1018A00080E00E94270B0E942D0B38980E942D0B80
:1018B00081E00E94270B0E942D0BC6B180E00E94A0
:1018C000270B0E942D0B8C2F80958170DF91CF917B
:1018D0000895389ADBCF1F93CF93DF93162F3A9852
:1018E00080E00E94270B0E942D0BD8E0C0E0CC0FB7
:1018F00081E00E94270B0E942D0B3299C16080E08D
:101900000E94270B0E942D0BD15089F71123A9F0BB
:101910003A9A0E942D0B81E00E94270B0E942D0B0A
:1019200080E00E94270B0E942D0B3A980E942D0BFD
:101930008C2FDF91CF911F9108953A98EACF1F9392
:10194000CF93DF93162F3B9880E00E94270B0E94D5
:101950002D0BD8E0C0E0CC0F81E00E94270B0E9445
:101960002D0B3399C16080E00E94270B0E942D0B44
:10197000D15089F71123A9F03B9A0E942D0B81E0E9
:101980000E94270B0E942D0B80E00E94270B0E94D3
:101990002D0B3B980E942D0B8C2FDF91CF911F9127
:1019A00008953B98EACF1F93CF93DF93162F399872
:1019B00080E00E94270B0E942D0BD8E0C0E0CC0FE6
:1019C00081E00E94270B0E942D0B3199C16080E0BD
:1019D0000E94270B0E942D0BD15089F71123A9F0EB
:1019E000399A0E942D0B81E00E94270B0E942D0B3B
:1019F00080E00E94270B0E942D0B39980E942D0B2E
:101A00008C2FDF91CF911F9108953998EACF1F93C2
:101A1000CF93DF93162F389880E00E94270B0E9407
:101A20002D0BD8E0C0E0CC0F81E00E94270B0E9474
:101A30002D0B3099C16080E00E94270B0E942D0B76
:101A4000D15089F71123A9F0389A0E942D0B81E01B
:101A50000E94270B0E942D0B80E00E94270B0E9402
:101A60002D0B38980E942D0B8C2FDF91CF911F9159
:101A700008953898EACF4F925F926F927F928F923B
:101A80009F92AF92BF92CF92DF92EF92FF920F930D
:101A90001F93CF93DF93EC0185EA91E0FE018193E0
:101AA00091937F0185E491E09B838A83389881E05C
:101AB0000E94270B409845985E01F6E0AF0EB11CDE
:101AC0008DE591E09F838E83399881E00E94270BFA
:101AD000419845983E018AE0680E711C85E791E0C7
:101AE0009B878A873A9881E00E94270B4298459805
:101AF0002E01EEE04E0E511C8DE891E09F878E87FF
:101B00003B9881E00E94270B439845986E01F2E1D3
:101B1000CF0ED11C86014E0182E7880E911CC801B0
:101B20000E946100085E1F4F80169106C1F7F40104
:101B3000108211821282138266E071E081EF91E0DF
:101B40000E94D302B701C6010E947E008C0160E1B1
:101B500071E081EF91E00E94D302A801110F660BA2
:101B6000770B81EF91E00E94E5026FE371E081EF76
:101B700091E00E94D302B501CE018A960E947E00B8
:101B80008C0160E171E081EF91E00E94D302A80135
:101B9000110F660B770B81EF91E00E94E5026FE376
:101BA00071E081EF91E00E94D302B301CE018E5B20
:101BB0009F4F0E947E008C0160E171E081EF91E017
:101BC0000E94D302A801110F660B770B81EF91E001
:101BD0000E94E5026FE371E081EF91E00E94D30281
:101BE000B201CE01865A9F4F0E947E00EC0160E157
:101BF00071E081EF91E00E94D302AE01DD0F660B30
:101C0000770B81EF91E00E94E5026FE371E081EFD5
:101C100091E00E94D30264E271E081EF91E0DF91F4
:101C2000CF911F910F91FF90EF90DF90CF90BF90D9
:101C3000AF909F908F907F906F905F904F900C949B
:101C4000D302CF93DF93CDB7DEB7C657D1090FB616
:101C5000F894DEBF0FBECDBF6FE271E081EF91E07F
:101C60000E94D302CE0101960E943B0D6FE271E00B
:101C700081EF91E00E94D302CE0101960E94770A83
:101C8000FBCF97FB072E16F4009407D077FD09D001
:101C90000E94B40E07FC05D03EF4909581959F4FAD
:101CA0000895709561957F4F0895A1E21A2EAA1BA1
:101CB000BB1BFD010DC0AA1FBB1FEE1FFF1FA217FC
:101CC000B307E407F50720F0A21BB30BE40BF50BF9
:101CD000661F771F881F991F1A9469F76095709582
:101CE000809590959B01AC01BD01CF010895052E13
:101CF00097FB1EF400940E948E0E57FD07D00E94A1
:101D0000550E07FC03D04EF40C948E0E5095409562
:101D1000309521953F4F4F4F5F4F08959095809597
:101D2000709561957F4F8F4F9F4F08950E949E0E33
:101D3000332312F48A1B9B0B0C94AF0EA29FB001AD
:101D4000B39FC001A39F700D811D1124911DB29FEF
:101D5000700D811D1124911D08950E949E0EB7FFE4
:101D60000895821B930B0895AA1BBB1B51E107C06A
:101D7000AA1FBB1FA617B70710F0A61BB70B881F1B
:101D8000991F5A95A9F780959095BC01CD010895AA
:101D9000EE0FFF1F0590F491E02D09945058BB27DA
:101DA000AA270E94E60E0C94EE0F0E94E00F38F076
:101DB0000E94E70F20F039F49F3F19F426F40C94A9
:101DC000DD0F0EF4E095E7FB0C94D70FE92F0E948E
:101DD000FF0F58F3BA17620773078407950720F0BF
:101DE00079F4A6F50C9421100EF4E0950B2EBA2F81
:101DF000A02D0B01B90190010C01CA01A001112411
:101E0000FF27591B99F0593F50F4503E68F11A16BC
:101E1000F040A22F232F342F4427585FF3CF46954D
:101E200037952795A795F0405395C9F77EF41F166F
:101E3000BA0B620B730B840BBAF09150A1F0FF0F39
:101E4000BB1F661F771F881FC2F70EC0BA0F621F25
:101E5000731F841F48F4879577956795B795F79515
:101E60009E3F08F0B0CF9395880F08F09927EE0FAA
:101E70009795879508950E94B30F08F481E008951F
:101E80000E94470F6894B1110C94221008950E948B
:101E9000071088F09F5798F0B92F9927B751B0F0E5
:101EA000E1F0660F771F881F991F1AF0BA95C9F7DE
:101EB00014C0B13091F00E942110B1E008950C944B
:101EC0002110672F782F8827B85F39F0B93FCCF3FE
:101ED000869577956795B395D9F73EF4909580955B
:101EE000709561957F4F8F4F9F4F0895E89409C07B
:101EF00097FB3EF490958095709561957F4F8F4F3D
:101F00009F4F9923A9F0F92F96E9BB279395F69552
:101F1000879577956795B795F111F8CFFAF4BB0FD0
:101F200011F460FF1BC06F5F7F4F8F4F9F4F16C034
:101F3000882311F096E911C0772321F09EE8872FBE
:101F4000762F05C0662371F096E8862F70E060E07A
:101F50002AF09A95660F771F881FDAF7880F9695F3
:101F6000879597F90895990F0008550FAA0BE0E897
:101F7000FEEF16161706E807F907C0F0121613064B
:101F8000E407F50798F0621B730B840B950B39F48B
:101F90000A2661F0232B242B252B21F408950A26F1
:101FA00009F4A140A6958FEF811D811D089597F931
:101FB0009F6780E870E060E008959FEF80EC0895EF
:101FC00000240A9416161706180609060895002418
:101FD0000A9412161306140605060895092E039492
:101FE000000C11F4882352F0BB0F40F4BF2B11F406
:101FF00060FF04C06F5F7F4F8F4F9F4F089557FD65
:102000009058440F551F59F05F3F71F04795880F66
:1020100097FB991F61F09F3F79F0879508951216FD
:1020200013061406551FF2CF4695F1DF08C01616A9
:1020300017061806991FF1CF86957105610508945A
:102040000895E894BB2766277727CB0197F9089571
:102050000E94B30F08F48FEF08950E9440100C9473
:10206000EE0F0E94E00F38F00E94E70F20F095235A
:1020700011F00C94D70F0C94DD0F11240C94221046
:102080000E94FF0F70F3959FC1F3950F50E0551F0D
:10209000629FF001729FBB27F00DB11D639FAA27BD
:1020A000F00DB11DAA1F649F6627B00DA11D661F0C
:1020B000829F2227B00DA11D621F739FB00DA11D2D
:1020C000621F839FA00D611D221F749F3327A00DE7
:1020D000611D231F849F600D211D822F762F6A2F83
:1020E00011249F5750409AF0F1F088234AF0EE0FE8
:1020F000FF1FBB1F661F771F881F91505040A9F715
:102100009E3F510580F00C94D70F0C9422105F3F36
:10211000E4F3983ED4F3869577956795B795F79550
:10212000E7959F5FC1F7FE2B880F911D96958795C8
:1021300097F908950F931F93CF93DF938230910502
:1021400010F482E090E0E091F401F091F50130E0CC
:1021500020E0B0E0A0E0309799F42115310509F4B2
:102160004AC0281B390B24303105D8F58A819B8160
:102170006115710589F1FB0193838283FE0111C012
:10218000408151810281138148175907E0F04817B7
:10219000590799F4109761F012960C9312971396C1
:1021A0001C933296CF01DF91CF911F910F9108952B
:1021B0000093F4011093F501F4CF2115310551F08E
:1021C0004217530738F0A901DB019A01BD01DF0175
:1021D000F801C1CFEF01F9CF9093F5018093F4019D
:1021E000CDCFFE01E20FF31F81939193225031096D
:1021F00039832883D7CF2091F2013091F301232B2B
:1022000041F420910201309103013093F3012093B6
:10221000F20120910001309101012115310541F4B5
:102220002DB73EB74091040150910501241B350B99
:10223000E091F201F091F301E217F307A0F42E1BF5
:102240003F0B2817390778F0AC014E5F5F4F24171A
:10225000350748F04E0F5F1F5093F3014093F20192
:10226000819391939FCFF0E0E0E09CCFCF93DF93F9
:102270000097E9F0FC01329713821282A091F401D9
:10228000B091F501ED0130E020E01097A1F420813C
:102290003181820F931F2091F2013091F3012817B1
:1022A000390709F061C0F093F301E093F201DF9187
:1022B000CF910895EA01CE17DF07E8F54A815B81E7
:1022C0009E0141155105B1F7E901FB83EA8349916C
:1022D0005991C40FD51FEC17FD0761F480819181DE
:1022E0000296840F951FE9019983888382819381E7
:1022F0009B838A83F0E0E0E012968D919C91139786
:102300000097B9F52D913C911197CD010296820F5E
:10231000931F2091F2013091F3012817390739F604
:10232000309751F51092F5011092F401B093F3013A
:10233000A093F201BCCFD383C28340815181840F2B
:10234000951FC817D90761F44E5F5F4F8881998147
:10235000480F591F518340838A819B8193838283D5
:102360002115310509F0B0CFF093F501E093F401A8
:102370009ECFFD01DC01C0CF13821282D7CF10E0C7
:10238000C6E3D0E004C0FE010E94C80E2196C73308
:08239000D107C9F7F894FFCF53
:102398000000F60120007374617274696E670A00A8
:1023A8004D41474E45544F4D455445525F696E69FE
:1023B800743A2000696E697420646F6E650A000AB9
:1023C8007465726D696E616C2072656164790A0A60
:1023D80000000000004E0B400B3A0C070DBC08EF44
:1023E800082D096D09B009FF0900000000860B944B
:1023F8000BD50BD30C28075B079907D9071C086B6B
:1024080008000000006A0B780BA20B6B0C9405C740
:1024180005050645068806D70600000000320B5C55
:102428000B070C9F0C000433047104B104F404433B
:0C2438000500000000500A6D0A770A0041
:00000001FF
