:100000000C9437000C945F000C945F000C945F001C
:100010000C945F000C945F000C945F000C945F00E4
:100020000C945F000C945F000C945F000C945F00D4
:100030000C945F000C945F000C940E040C945F0011
:100040000C945F000C945F000C945F000C945F00B4
:100050000C945F000C945F000C945F000C945F00A4
:100060000C945F000C945F006B045E056205112424
:100070001FBECFEFD8E0DEBFCDBF11E0A0E0B1E002
:10008000E4E1F2E202C005900D92A039B107D9F780
:1000900021E0A0E9B1E001C01D92AA3DB207E1F75D
:1000A00010E0C6E3D0E004C02197FE010E94D20F09
:1000B000C433D107C9F70E946D0F0C94FD100C9446
:1000C0000000089508950F931F93CF93DF93EC01E1
:1000D00089899A89DC01ED91FC910084F185E02DFC
:1000E00021E04BE062E5099589899A899E012D5F9F
:1000F0003F4FDC01ED91FC910288F389E02D0EE089
:1001000010E044E162E509958D859E859827892751
:1001100098271A829C0124513109213E314020F454
:100120009983888381E08A8388819981DF91CF9147
:100130001F910F910895FC01808191810895AF92E4
:10014000BF92CF92DF92EF92FF920F931F93CF93C4
:10015000DF93EC015B018A01DB011C9289899A899A
:10016000DC01ED91FC910084F185E02D21E040E877
:1001700062E5099589899A89DC01ED91FC910084F9
:10018000F185E02D21E04FEF62E5099589899A8993
:10019000DC01ED91FC910084F185E02D20E040E050
:1001A00062E5099589899A89DC01ED91FC910084C9
:1001B000F185E02D26E04FEF62E50995E988FA88A0
:1001C000D701ED91FC91C084D1840684F785E02DA0
:1001D00043E862E5C7010995282F246043E862E5FA
:1001E000C701F601099589899A89DC01ED91FC9195
:1001F0000084F185E02D27E04FEF62E509958989BC
:100200009A89DC01ED91FC910084F185E02D21E0DB
:1002100041E862E5099589899A89DC01ED91FC91B3
:100220000084F185E02D21E040E862E509958989A7
:100230009A89DC01ED91FC910084F185E02D2BE69B
:1002400044E962E5099589899A89DC01ED91FC917F
:100250000084F185E02D20E043E862E5099581E422
:10026000C82E82E4D82E8FE0E82EF12C89899A8955
:10027000DC01ED91FC910684F785E02D43E862E511
:100280000995811108C0B1E0CB1AD108E108F10845
:1002900069F780E07DC089899A89DC01ED91FC9144
:1002A0000084F185E02D21E043E862E50995898924
:1002B0009A89DC01ED91FC910684F785E02D42E9F5
:1002C00062E50995982F9F77F5019083881F88270D
:1002D000881FD8018C9389899A89DC01ED91FC9162
:1002E0000084F185E02D20E041E862E509958989E7
:1002F0009A89DC01ED91FC910084F185E02D26E0E6
:100300004FEF62E5099509891A89D801ED91FC91B1
:10031000E084F1840684F785E02D43E862E5C801B6
:100320000995282F43E862E5C801F70109958989F5
:100330009A89DC01ED91FC910084F185E02D21E0AA
:100340004FEF62E5099589899A89DC01ED91FC916D
:100350000084F185E02D21E040E062E5099589897E
:100360009A89DC01ED91FC910084F185E02D20E07B
:100370004FEF62E5099589899A89DC01ED91FC913D
:100380000084F185E02D20E040E862E5099581E0F8
:10039000DF91CF911F910F91FF90EF90DF90CF9061
:1003A000BF90AF900895CF92DF92EF92FF920F939C
:1003B0001F93CF93DF93CDB7DEB728970FB6F8948E
:1003C000DEBF0FBECDBF7C018B01DC0152967C935A
:1003D0006E93519780E090E211969C938E931296C3
:1003E0001C92DB01ED91FC91C084D1840684F785D9
:1003F000E02D49E862E5C8010995282F216049E808
:1004000062E5C801F6010995D70151968D919C913D
:10041000DC01ED91FC910684F785E02D40EC62E56E
:1004200009958E3E09F07AC1F70181899289DC0134
:10043000ED91FC910084F185E02D21E04FEB62E528
:10044000099581EA96E8A1E0B0E00197A109B10918
:1004500011F00000FACFF70181899289DC01ED915A
:10046000FC910084F185E02D20E048E862E50995E3
:10047000F70181899289DC01ED91FC910084F1857D
:10048000E02D21E040E862E50995F7018189928934
:10049000DC01ED91FC910084F185E02D21E04FEF2E
:1004A00062E50995F70181899289DC01ED91FC9162
:1004B0000084F185E02D20E040E062E50995F70138
:1004C00081899289DC01ED91FC910684F785E02D0C
:1004D00041E962E50995F70181899289DC01ED9195
:1004E000FC910084F185E02D21E040E062E5099572
:1004F000F70181899289DC01ED91FC910084F185FD
:10050000E02D20E04FEF62E50995F701818992899E
:10051000DC01ED91FC910084F185E02D20E040E8C4
:1005200062E509951886AE01495F5F4FBE01685FBD
:100530007F4FC7010E949F00F70181899289DC01EA
:10054000ED91FC910288F389E02D06E010E09E0118
:100550002F5F3F4F40EB62E50995F7018189928952
:10056000DC01ED91FC910084F185E02D21E04FEF5D
:1005700062E50995F70181899289DC01ED91FC9191
:100580000084F185E02D20E04FE462E50995F70154
:1005900081899289DC01ED91FC910084F185E02D47
:1005A0002CE24EE462E50995F70181899289DC012C
:1005B000ED91FC910084F185E02D20E04FEF62E5A4
:1005C0000995F70181899289DC01ED91FC91008404
:1005D000F185E02D24EB46EB62E509958F81ACE0D7
:1005E000811101C0A0E0B88580E090E001E010E05A
:1005F000482F46954695469550E021E030E02C0F77
:100600003D1F240F351FF9012081682F67708A175D
:1006100010F0B91379C0E1E0F0E0EC0FFD1F4E0FD0
:100620005F1FF80102C0EE0FFF1F6A95E2F7BF01DE
:1006300060952623FA0120838F5F8033C9F6D701A6
:1006400051968D919C91DC01ED91FC910484F5858E
:10065000E02D06E010E09E012F5F3F4F40EB62E58A
:100660000995F70181899289DC01ED91FC9106845D
:10067000F785E02D44E862E50995182FF701818997
:100680009289DC01ED91FC910084F185E02D24E05C
:100690004AE062E50995F70181899289212F2F7E31
:1006A000DC01ED91FC910084F185E02D44E862E5E8
:1006B0000995F70181899289DC01ED91FC91008413
:1006C000F185E02D21E04BE062E50995F701818994
:1006D0009289DC01ED91FC910084F185E02D22E00E
:1006E00040E062E5099590E080E028960FB6F89426
:1006F000DEBF0FBECDBFDF91CF911F910F91FF9055
:10070000EF90DF90CF90089530E002C035952795A7
:100710006A95E2F720FF90CF9F5F8ECF8EEF9FEF1D
:10072000E4CFE1E9F1E01182108213821282158296
:10073000148216821782389681E0E13DF80799F716
:1007400084B5826084BD89EF87BD83E085BD8091DB
:100750006E00826080936E0078940895F894E1E9C9
:10076000F1E090E080E0A081B181AB2B91F4FC013D
:1007700033E0EE0FFF1F3A95E1F7EF56FE4F71831E
:1007800060835383428355834483168227837894FE
:100790000895019638968830910529F78FEF9FEFDD
:1007A000F6CFCF93DF93C1E9D1E08881998100979B
:1007B00071F02E81222359F01E822F81211107C052
:1007C000DC01ED91FC910480F581E02D09952896DE
:1007D000B1E0C13DDB0749F7DF91CF910895CF9399
:1007E000DF9300D000D0CDB7DEB7F8948091D1016F
:1007F0009091D201A091D301B091D40189839A83C1
:10080000AB83BC83789469817A818B819C810F90C2
:100810000F900F900F90DF91CF9108951F920F923C
:100820000FB60F9211242F933F934F935F936F93C3
:100830007F938F939F93AF93BF93CF93DF93EF9368
:10084000FF93C1E9D1E08C819D81009771F10197FF
:100850009D838C832896B1E0C13DDB07A1F7809191
:10086000D1019091D201A091D301B091D401019610
:10087000A11DB11D8093D1019093D201A093D3010A
:10088000B093D401FF91EF91DF91CF91BF91AF91E0
:100890009F918F917F916F915F914F913F912F9198
:1008A0000F900FBE0F901F9018958A819B819D839A
:1008B0008C838E818F3F11F08F5F8E838F81882391
:1008C00049F288819981DC01ED91FC910480F581E8
:1008D000E02D0995BFCF80E991E00C94910310922F
:1008E000C50087E68093C400E2ECF0E0808186607A
:1008F0008083E1ECF0E08081886180830895089531
:100900006A3049F48DE08093C6008091C00085FD77
:1009100002C00000FACF6093C6008091C00085FD40
:1009200002C00000FACF08950F931F93CF93DF9377
:100930008C01EB016991662321F0C8010E948004BB
:10094000F9CFDF91CF911F910F9108958F929F92D0
:10095000AF92BF92CF92DF92EF92FF920F931F93CD
:10096000CF93DF93CDB7DEB72C970FB6F894DEBFE9
:100970000FBECDBF7C0100E077FF08C07095609589
:10098000509541955F4F6F4F7F4F01E01C861AE0F5
:100990009AE0892E912CA12CB12CCC24C394D12C7B
:1009A000CC0EDD1EC10ED11CCB01BA01A5019401F4
:1009B0000E94B30F942F852F605DF6016083A9011B
:1009C000692F782F8FEF810F411551056105710552
:1009D00039F5002349F0E1E0F0E0EC0FFD1FE80FEE
:1009E000F11D9DE29083182F61E070E06C0F7D1F78
:1009F000610F711DC7010E9494042C960FB6F894E4
:100A0000DEBF0FBECDBFDF91CF911F910F91FF9041
:100A1000EF90DF90CF90BF90AF909F908F90089510
:100A2000182FBBCF8F929F92AF92BF92CF92DF923F
:100A3000EF92FF921F93CF93DF93CDB7DEB72C9742
:100A40000FB6F894DEBF0FBECDBF6C011C861AE056
:100A50009AE0892E912CA12CB12CEE24E394F12C58
:100A6000EC0EFD1EE10EF11CCB01BA01A5019401B3
:100A70000E94910F942F852F605DF7016083A9017B
:100A8000692F782F1150411551056105710529F71E
:100A9000B701C6010E9494042C960FB6F894DEBFED
:100AA0000FBECDBFDF91CF911F91FF90EF90DF90F0
:100AB000CF90BF90AF909F908F90089585ED91E07B
:100AC0000C946F0485ED91E00C947F040C947410E9
:100AD0000C9461000C946200FC01168A158A108E39
:100AE000178A128E118E138E148A138A0C94D301D6
:100AF000CF93DF93EC010E946300CE010E949B0024
:100B00009E8B8D8B4F89588D6FE1649F9001659FFF
:100B1000300D1124280F391F37FF02C0215E3F4FCF
:100B200045E0359527954A95E1F7388F2F8B821B45
:100B3000930B9A8F898F863F9F4FA4F48B899C8952
:100B4000892B81F481E08B8F84E190E09C8B8B8BEF
:100B50008B899C89009719F001979C8B8B8BDF9177
:100B6000CF9108951B8EF4CFFF920F931F93CF93D5
:100B7000DF93EC01F62E042F122FE881F98101900A
:100B8000F081E02D0995E881F9810480F581E02D5F
:100B90006F2DCE010995E881F9810480F581E02D62
:100BA000602FCE010995E881F9810480F581E02D5F
:100BB000612FCE010995E881F9810280F381E02D52
:100BC000CE01DF91CF911F910F91FF900994EF9289
:100BD000FF920F931F93CF93DF93EC01E62EF42E39
:100BE000122F032FE881F9810190F081E02D099502
:100BF000E881F9810480F581E02D6E2DCE01099503
:100C0000E881F9810480F581E02D6F2DCE010995F1
:100C1000E881F9810480F581E02D602FCE010995EE
:100C2000E881F9810480F581E02D612FCE010995DD
:100C3000E881F9810280F381E02DCE01DF91CF912F
:100C40001F910F91FF90EF900994CF92DF92EF9256
:100C5000FF920F931F93CF93DF93EC01E62EF42EB8
:100C60006901E881F9810190F081E02D0995E88121
:100C7000F9810480F581E02D6E2DCE010995E88182
:100C8000F9810480F581E02D6F2DCE010995760163
:100C90000C0D1D1DE881F981E016F10649F0D70120
:100CA0006D917D010480F581E02DCE010995F2CF93
:100CB0000280F381E02DCE01DF91CF911F910F9142
:100CC000FF90EF90DF90CF9009940F931F93CF93F5
:100CD000DF93EC01162F042FE881F9810190F08158
:100CE000E02D0995E881F9810480F581E02D612FDF
:100CF000CE010995E881F9810480F581E02D602F0E
:100D0000CE010995E881F9810190F081E02DCE01B5
:100D10000995612F6160E881F9810480F581E02DFA
:100D2000CE010995E881F9810680F781E02D60E028
:100D3000CE010995182FE881F9810280F381E02D19
:100D4000CE010995812FDF91CF911F910F910895C9
:100D50000F931F93CF93DF93EC01162F042FE8819D
:100D6000F9810190F081E02D0995E881F9810480F5
:100D7000F581E02D612FCE010995E881F98104808C
:100D8000F581E02D602FCE010995E881F981019070
:100D9000F081E02DCE010995612F6160E881F98134
:100DA0000480F581E02DCE010995E881F981068066
:100DB000F781E02D61E0CE010995082F10E0102F9A
:100DC0000027E881F9810680F781E02D60E0CE01FF
:100DD0000995082BE881F9810280F381E02DCE018D
:100DE0000995C801DF91CF911F910F910895CF927E
:100DF000DF92EF92FF920F931F93CF93DF93EC015B
:100E0000F62EE42E6901E881F9810190F081E02D50
:100E10000995E881F9810480F581E02D6F2DCE01DF
:100E20000995E881F9810480F581E02D6E2DCE01D0
:100E30000995E881F9810190F081E02DCE010995B5
:100E40006F2D6160E881F9810480F581E02DCE018C
:100E5000099576010C0D1D1DE881F981E016F1065A
:100E600051F00680F781E02D61E0CE010995F70190
:100E700081937F01F1CF0280F381E02DCE01DF91DC
:100E8000CF911F910F91FF90EF90DF90CF90099439
:100E9000FF920F931F93CF93DF93EC01F62E042F55
:100EA000122FE881F9810190F081E02D0995E88108
:100EB000F9810480F581E02D6F2DCE010995E8813F
:100EC000F9810480F581E02D602FCE010995E8813C
:100ED000F9810480F581E02D612FCE010995E8812B
:100EE000F9810280F381E02DCE01DF91CF911F9136
:100EF0000F91FF900994EF92FF920F931F93CF935E
:100F0000DF93EC01E62EF42E122F032FE881F981F6
:100F10000190F081E02D0995E881F9810480F58147
:100F2000E02D6E2DCE010995E881F9810480F581CF
:100F3000E02D6F2DCE010995E881F9810480F581BE
:100F4000E02D602FCE010995E881F9810480F581BB
:100F5000E02D612FCE010995E881F9810280F381AE
:100F6000E02DCE01DF91CF911F910F91FF90EF9077
:100F70000994CF92DF92EF92FF920F931F93CF933A
:100F8000DF93EC01E62EF42E6901E881F9810190EE
:100F9000F081E02D0995E881F9810480F581E02D4B
:100FA0006E2DCE010995E881F9810480F581E02D4F
:100FB0006F2DCE01099576010C0D1D1DE881F9817B
:100FC000E016F10649F0D7016D917D010480F581AD
:100FD000E02DCE010995F2CF0280F381E02DCE0104
:100FE000DF91CF911F910F91FF90EF90DF90CF9005
:100FF00009940F931F93CF93DF93EC01162F042FC7
:10100000E881F9810190F081E02D0995E881F9816D
:101010000480F581E02D612FCE010995E881F981E9
:101020000480F581E02D602FCE010995E881F981DA
:101030000190F081E02DCE010995612F6160E8817A
:10104000F9810480F581E02DCE010995E881F981CF
:101050000680F781E02D60E0CE010995182FE88128
:10106000F9810280F381E02DCE010995812FDF9176
:10107000CF911F910F9108950F931F93CF93DF93FB
:10108000EC01162F042FE881F9810190F081E02D09
:101090000995E881F9810480F581E02D612FCE0169
:1010A0000995E881F9810480F581E02D602FCE015A
:1010B0000995E881F9810190F081E02DCE01099533
:1010C000612F6160E881F9810480F581E02DCE0116
:1010D0000995E881F9810680F781E02D61E0CE0174
:1010E0000995082F10E0102F0027E881F98106806C
:1010F000F781E02D60E0CE010995082BE881F981A8
:101100000280F381E02DCE010995C801DF91CF91D6
:101110001F910F910895CF92DF92EF92FF920F935C
:101120001F93CF93DF93EC01F62EE42E6901E88143
:10113000F9810190F081E02D0995E881F981048021
:10114000F581E02D6F2DCE010995E881F9810480AC
:10115000F581E02D6E2DCE010995E881F981019090
:10116000F081E02DCE0109956F2D6160E881F98154
:101170000480F581E02DCE01099576010C0D1D1D31
:10118000E881F981E016F10651F00680F781E02D43
:1011900061E0CE010995F70181937F01F1CF0280D3
:1011A000F381E02DCE01DF91CF911F910F91FF9040
:1011B000EF90DF90CF900994FF920F931F93CF93FE
:1011C000DF93EC01F62E042F122FE881F9810190B4
:1011D000F081E02D0995E881F9810480F581E02D09
:1011E0006F2DCE010995E881F9810480F581E02D0C
:1011F000602FCE010995E881F9810480F581E02D09
:10120000612FCE010995E881F9810280F381E02DFB
:10121000CE01DF91CF911F910F91FF900994EF9232
:10122000FF920F931F93CF93DF93EC01E62EF42EE2
:10123000122F032FE881F9810190F081E02D0995AB
:10124000E881F9810480F581E02D6E2DCE010995AC
:10125000E881F9810480F581E02D6F2DCE0109959B
:10126000E881F9810480F581E02D602FCE01099598
:10127000E881F9810480F581E02D612FCE01099587
:10128000E881F9810280F381E02DCE01DF91CF91D9
:101290001F910F91FF90EF900994CF92DF92EF9200
:1012A000FF920F931F93CF93DF93EC01E62EF42E62
:1012B0006901E881F9810190F081E02D0995E881CB
:1012C000F9810480F581E02D6E2DCE010995E8812C
:1012D000F9810480F581E02D6F2DCE01099576010D
:1012E0000C0D1D1DE881F981E016F10649F0D701CA
:1012F0006D917D010480F581E02DCE010995F2CF3D
:101300000280F381E02DCE01DF91CF911F910F91EB
:10131000FF90EF90DF90CF9009940F931F93CF939E
:10132000DF93EC01162F042FE881F9810190F08101
:10133000E02D0995E881F9810480F581E02D612F88
:10134000CE010995E881F9810480F581E02D602FB7
:10135000CE010995E881F9810190F081E02DCE015F
:101360000995612F6160E881F9810480F581E02DA4
:10137000CE010995E881F9810680F781E02D60E0D2
:10138000CE010995182FE881F9810280F381E02DC3
:10139000CE010995812FDF91CF911F910F91089573
:1013A0000F931F93CF93DF93EC01162F042FE88147
:1013B000F9810190F081E02D0995E881F98104809F
:1013C000F581E02D612FCE010995E881F981048036
:1013D000F581E02D602FCE010995E881F98101901A
:1013E000F081E02DCE010995612F6160E881F981DE
:1013F0000480F581E02DCE010995E881F981068010
:10140000F781E02D61E0CE010995082F10E0102F43
:101410000027E881F9810680F781E02D60E0CE01A8
:101420000995082BE881F9810280F381E02DCE0136
:101430000995C801DF91CF911F910F910895CF9227
:10144000DF92EF92FF920F931F93CF93DF93EC0104
:10145000F62EE42E6901E881F9810190F081E02DFA
:101460000995E881F9810480F581E02D6F2DCE0189
:101470000995E881F9810480F581E02D6E2DCE017A
:101480000995E881F9810190F081E02DCE0109955F
:101490006F2D6160E881F9810480F581E02DCE0136
:1014A000099576010C0D1D1DE881F981E016F10604
:1014B00051F00680F781E02D61E0CE010995F7013A
:1014C00081937F01F1CF0280F381E02DCE01DF9186
:1014D000CF911F910F91FF90EF90DF90CF900994E3
:1014E000FF920F931F93CF93DF93EC01F62E042FFF
:1014F000122FE881F9810190F081E02D0995E881B2
:10150000F9810480F581E02D6F2DCE010995E881E8
:10151000F9810480F581E02D602FCE010995E881E5
:10152000F9810480F581E02D612FCE010995E881D4
:10153000F9810280F381E02DCE01DF91CF911F91DF
:101540000F91FF900994EF92FF920F931F93CF9307
:10155000DF93EC01E62EF42E122F032FE881F981A0
:101560000190F081E02D0995E881F9810480F581F1
:10157000E02D6E2DCE010995E881F9810480F58179
:10158000E02D6F2DCE010995E881F9810480F58168
:10159000E02D602FCE010995E881F9810480F58165
:1015A000E02D612FCE010995E881F9810280F38158
:1015B000E02DCE01DF91CF911F910F91FF90EF9021
:1015C0000994CF92DF92EF92FF920F931F93CF93E4
:1015D000DF93EC01E62EF42E6901E881F981019098
:1015E000F081E02D0995E881F9810480F581E02DF5
:1015F0006E2DCE010995E881F9810480F581E02DF9
:101600006F2DCE01099576010C0D1D1DE881F98124
:10161000E016F10649F0D7016D917D010480F58156
:10162000E02DCE010995F2CF0280F381E02DCE01AD
:10163000DF91CF911F910F91FF90EF90DF90CF90AE
:1016400009940F931F93CF93DF93EC01162F042F70
:10165000E881F9810190F081E02D0995E881F98117
:101660000480F581E02D612FCE010995E881F98193
:101670000480F581E02D602FCE010995E881F98184
:101680000190F081E02DCE010995612F6160E88124
:10169000F9810480F581E02DCE010995E881F98179
:1016A0000680F781E02D60E0CE010995182FE881D2
:1016B000F9810280F381E02DCE010995812FDF9120
:1016C000CF911F910F9108950F931F93CF93DF93A5
:1016D000EC01162F042FE881F9810190F081E02DB3
:1016E0000995E881F9810480F581E02D612FCE0113
:1016F0000995E881F9810480F581E02D602FCE0104
:101700000995E881F9810190F081E02DCE010995DC
:10171000612F6160E881F9810480F581E02DCE01BF
:101720000995E881F9810680F781E02D61E0CE011D
:101730000995082F10E0102F0027E881F981068015
:10174000F781E02D60E0CE010995082BE881F98151
:101750000280F381E02DCE010995C801DF91CF9180
:101760001F910F910895CF92DF92EF92FF920F9306
:101770001F93CF93DF93EC01F62EE42E6901E881ED
:10178000F9810190F081E02D0995E881F9810480CB
:10179000F581E02D6F2DCE010995E881F981048056
:1017A000F581E02D6E2DCE010995E881F98101903A
:1017B000F081E02DCE0109956F2D6160E881F981FE
:1017C0000480F581E02DCE01099576010C0D1D1DDB
:1017D000E881F981E016F10651F00680F781E02DED
:1017E00061E0CE010995F70181937F01F1CF02807D
:1017F000F381E02DCE01DF91CF911F910F91FF90EA
:10180000EF90DF90CF9009940F931F93CF93DF93C6
:1018100029E831E0FC01318320838C010E5E1F4FEB
:1018200059F0EC01CE57DF4F0C171D0729F06C97CC
:10183000CE010E946A05F8CFDF91CF911F910F91E1
:101840000895CF93DF93EC010E94040CCE01DF9149
:10185000CF910C9466050F931F93CF93DF93EC0108
:1018600042960E947805CE018E960E947805CE01A0
:10187000865B9F4F0E947805CE018A599F4F0E9438
:1018800078059E0120593F4F8E0180E0F80195A513
:101890009111892F045E1F4F20173107B9F7882354
:1018A00069F180E991E00E94EF03AB01BC0185ED95
:1018B00091E00E94120561E171E085ED91E00E94E6
:1018C00094048DA561E3811101C060E385ED91E091
:1018D0000E94800461E171E085ED91E00E94940432
:1018E0006C96C017D10769F763E271E085ED91E06E
:1018F000DF91CF911F910F910C949404DF91CF91C0
:101900001F910F910895882311F03D9808953D9AF5
:10191000089500000000000000000000089581E02C
:101920000E94830C3B9881E00E94830C3B9A80E0EC
:101930000E94830C3B980C94890C80E00E94830CDD
:101940003B9A81E00E94830C3B9A81E00E94830CC9
:101950003B980C94890C81E00E94830C3A9881E0BA
:101960000E94830C3A9A80E00E94830C3A980C946F
:10197000890C80E00E94830C3A9A81E00E94830CDB
:101980003A9A81E00E94830C3A980C94890C80E08A
:101990000E94830C389A81E00E94830C389A81E07F
:1019A0000E94830C38980C94890C81E00E94830C6F
:1019B000389881E00E94830C389A80E00E94830C62
:1019C00038980C94890C81E00E94830C399881E04E
:1019D0000E94830C399A80E00E94830C39980C9401
:1019E000890C80E00E94830C399A81E00E94830C6C
:1019F000399A81E00E94830C39980C94890CCF931A
:101A0000DF93D62FC8E080E00E94830C0E94890CEF
:101A1000D7FF24C038980E94890C81E00E94830C73
:101A20000E94890CDD0FC15071F780E00E94830C89
:101A30000E94890C38980E94890C81E00E94830CD6
:101A40000E94890CC6B180E00E94830C0E94890C20
:101A50008C2F80958170DF91CF910895389ADBCFDC
:101A6000CF93DF93D62FC8E080E00E94830C0E94C2
:101A7000890CD7FF26C03A980E94890C81E00E9409
:101A8000830C0E94890CDD0FC15071F780E00E9429
:101A9000830C0E94890C3A980E94890C81E00E9474
:101AA000830C0E94890CC6B180E00E94830C0E94C6
:101AB000890CC2FBCC27C0F981E08C27DF91CF9144
:101AC00008953A9AD9CFCF93DF93D62FC8E080E01C
:101AD0000E94830C0E94890CD7FF26C03B980E946D
:101AE000890C81E00E94830C0E94890CDD0FC1509B
:101AF00071F780E00E94830C0E94890C3B980E9441
:101B0000890C81E00E94830C0E94890CC6B180E0A0
:101B10000E94830C0E94890CC3FBCC27C0F981E092
:101B20008C27DF91CF9108953B9AD9CFCF93DF9344
:101B3000D62FC8E080E00E94830C0E94890CD7FF5A
:101B400025C039980E94890C81E00E94830C0E9474
:101B5000890CDD0FC15071F780E00E94830C0E9458
:101B6000890C39980E94890C81E00E94830C0E94A4
:101B7000890CC6B180E00E94830C0E94890CC69536
:101B8000C17081E08C27DF91CF910895399ADACF27
:101B90001F93CF93DF93162F3B9880E00E94830C16
:101BA0000E94890CD8E0C0E0CC0F81E00E94830C39
:101BB0000E94890C3399C16080E00E94830C0E94CE
:101BC000890CD15089F71123A9F03B9A0E94890C06
:101BD00081E00E94830C0E94890C80E00E94830CAB
:101BE0000E94890C3B980E94890C8C2FDF91CF9129
:101BF0001F9108953B98EACF1F93CF93DF93162F41
:101C00003A9880E00E94830C0E94890CD8E0C0E0E2
:101C1000CC0F81E00E94830C0E94890C3299C16034
:101C200080E00E94830C0E94890CD15089F7112317
:101C3000A9F03A9A0E94890C81E00E94830C0E94CC
:101C4000890C80E00E94830C0E94890C3A980E94C3
:101C5000890C8C2FDF91CF911F9108953A98EACF8C
:101C60001F93CF93DF93162F389880E00E94830C48
:101C70000E94890CD8E0C0E0CC0F81E00E94830C68
:101C80000E94890C3099C16080E00E94830C0E9400
:101C9000890CD15089F71123A9F0389A0E94890C38
:101CA00081E00E94830C0E94890C80E00E94830CDA
:101CB0000E94890C38980E94890C8C2FDF91CF915B
:101CC0001F9108953898EACF1F93CF93DF93162F73
:101CD000399880E00E94830C0E94890CD8E0C0E013
:101CE000CC0F81E00E94830C0E94890C3199C16065
:101CF00080E00E94830C0E94890CD15089F7112347
:101D0000A9F0399A0E94890C81E00E94830C0E94FC
:101D1000890C80E00E94830C0E94890C39980E94F3
:101D2000890C8C2FDF91CF911F9108953998EACFBC
:101D30004F925F926F927F928F929F92AF92BF92DB
:101D4000CF92DF92EF92FF920F931F93CF93DF9387
:101D5000EC0189E891E0FE01819391937F0189E292
:101D600091E09B838A83389881E00E94830C40989D
:101D700045986E01F6E0CF0ED11C81E491E09F837F
:101D80008E83399881E00E94830C419845983E01EA
:101D90008AE0680E711C89E591E09B878A873A98F2
:101DA00081E00E94830C429845982E01EEE04E0E91
:101DB000511C81E791E09F878E873B9881E00E94CC
:101DC000830C439845984E01F2E18F0E911C8401DB
:101DD0005E0182E8A80EB11CC8010E946805045E7D
:101DE0001F4FA016B106C1F7B701C4010E946C05D0
:101DF0008C0166E071E085ED91E00E949404A801F9
:101E0000110F660B770B85ED91E00E94A60463E24B
:101E100071E085ED91E00E949404B601CE018E96AA
:101E20000E946C058C0166E071E085ED91E00E94F6
:101E30009404A801110F660B770B85ED91E00E94C9
:101E4000A60463E271E085ED91E00E949404B30181
:101E5000CE01865B9F4F0E946C058C0166E071E0AD
:101E600085ED91E00E949404A801110F660B770B99
:101E700085ED91E00E94A60463E271E085ED91E0BA
:101E80000E949404B201CE018A599F4F0E946C05B2
:101E9000EC0166E071E085ED91E00E949404AE01F2
:101EA000DD0F660B770B85ED91E00E94A60463E2DF
:101EB00071E085ED91E0DF91CF911F910F91FF903F
:101EC000EF90DF90CF90BF90AF909F908F907F90DA
:101ED0006F905F904F900C949404CF93DF93CDB7A5
:101EE000DEB7C258D1090FB6F894DEBF0FBECDBF22
:101EF000CE0101960E94980E20E044E650E0BE011B
:101F00006F5F7F4F80E991E00E94AE0363E171E073
:101F100085ED91E00E94940480E991E00E94D10354
:101F2000FBCFA1E21A2EAA1BBB1BFD010DC0AA1FED
:101F3000BB1FEE1FFF1FA217B307E407F50720F032
:101F4000A21BB30BE40BF50B661F771F881F991FAD
:101F50001A9469F760957095809590959B01AC01F6
:101F6000BD01CF010895052E97FB1EF400940E9439
:101F7000CA0F57FD07D00E94910F07FC03D04EF403
:101F80000C94CA0F50954095309521953F4F4F4F77
:101F90005F4F089590958095709561957F4F8F4F15
:101FA0009F4F0895EE0FFF1F0590F491E02D0994C7
:101FB0000F931F93CF93DF938230910510F482E04B
:101FC00090E0E091D801F091D90130E020E0B0E05C
:101FD000A0E0309799F42115310509F44AC0281B77
:101FE000390B24303105D8F58A819B816115710543
:101FF00089F1FB0193838283FE0111C040815181ED
:102000000281138148175907E0F04817590799F4DE
:10201000109761F012960C93129713961C933296B8
:10202000CF01DF91CF911F910F9108950093D801B7
:102030001093D901F4CF2115310551F04217530700
:1020400038F0A901DB019A01BD01DF01F801C1CF20
:10205000EF01F9CF9093D9018093D801CDCFFE0144
:10206000E20FF31F81939193225031093983288322
:10207000D7CF2091D6013091D701232B41F4209165
:102080000201309103013093D7012093D6012091B2
:102090000001309101012115310541F42DB73EB702
:1020A0004091040150910501241B350BE091D601AC
:1020B000F091D701E217F307A0F42E1B3F0B28176E
:1020C000390778F0AC014E5F5F4F2417350748F0B1
:1020D0004E0F5F1F5093D7014093D6018193919388
:1020E0009FCFF0E0E0E09CCFCF93DF930097E9F043
:1020F000FC01329713821282A091D801B091D901CC
:10210000ED0130E020E01097A1F420813181820FB1
:10211000931F2091D6013091D7012817390709F074
:1021200061C0F093D701E093D601DF91CF9108957C
:10213000EA01CE17DF07E8F54A815B819E01411570
:102140005105B1F7E901FB83EA8349915991C40F25
:10215000D51FEC17FD0761F4808191810296840FF1
:10216000951FE90199838883828193819B838A8368
:10217000F0E0E0E012968D919C9113970097B9F5ED
:102180002D913C911197CD010296820F931F2091C2
:10219000D6013091D7012817390739F6309751F514
:1021A0001092D9011092D801B093D701A093D60113
:1021B000BCCFD383C28340815181840F951FC81740
:1021C000D90761F44E5F5F4F88819981480F591F8D
:1021D000518340838A819B819383828321153105BA
:1021E00009F0B0CFF093D901E093D8019ECFFD0163
:1021F000DC01C0CF13821282D7CF10E0C6E3D0E05B
:1022000004C0FE010E94D20F2196C733D107C9F73F
:04221000F894FFCF70
:102214000000DA0120004C415345525F696E697435
:102224003A20000A7465726D696E616C2072656192
:1022340064790A0A0000000000D50CC70CFF0C30BA
:102244000E700AA30AE10A210B640BB30B00000011
:1022540000E30CF10C960D640EDC080F094D098D9A
:1022640009D0091F0A00000000AB0CB90C300DFCAA
:102274000D48077B07B907F9073C088B08000000E5
:10228400008F0C9D0C630DC80DB405E7052506658C
:1022940006A806F70600000000040C210C2B0C0015
:00000001FF
